:1000000016C025C024C023C08FC021C020C01FC07F
:100010001EC01DC01CC01BC01AC019C018C00037AC
:10002000003801010101010101020408102011241E
:100030001FBECFE5D2E0DEBFCDBF20E0A0E6B0E03E
:1000400001C01D92A936B207E1F7B5D0F9C0D8CFEB
:10005000E9E2F0E09491E3E2F0E0E491EE2391F044
:100060002AB52F7C2ABDF0E0E05EFF4FA491B0E0FE
:10007000811109C08FB7F8942C91E92FE095E22304
:10008000EC938FBF08958FB7F894EC91E92BF8CFDC
:100090003FB7F8948091650090916600A091670049
:1000A000B09168002FB508B602FE05C02F3F19F0C9
:1000B0000196A11DB11D3FBFBA2FA92F982F8827E8
:1000C000BC01CD01620F711D811D911D42E0660FC3
:1000D000771F881F991F4A95D1F70895CF92DF9215
:1000E000EF92FF92CF93DF93D3DFEB0188ECC82E22
:1000F000D12CE12CF12CCCDF6C1B7D0B683E7340C6
:10010000D0F381E0C81AD108E108F108C851DC4FEA
:10011000C114D104E104F10471F7DF91CF91FF9094
:10012000EF90DF90CF90089578941F920F920FB6C2
:100130000F9211242F933F938F939F93AF93BF936D
:100140008091610090916200A0916300B091640081
:10015000309160002CE7230F2D3728F02FEF230F6D
:100160000196A11DB11D20936000809361009093C2
:100170006200A0936300B093640080916500909149
:100180006600A0916700B09168000196A11DB11DA5
:100190008093650090936600A0936700B093680019
:1001A000BF91AF919F918F913F912F910F900FBE73
:1001B0000F901F901895789480B7806880BF80B7A3
:1001C000806480BF8CB580648CBD8FEF8DBD80B79F
:1001D000807F876080BF89B7846089BF83B7887F4D
:1001E00083BF8AB58C7F81608ABD83B7877F83BFD9
:1001F00083B7887F836083BF86B1876086B9379A6B
:10020000E9E2F0E02491E3E2F0E0E491EE2389F00A
:100210008E2F90E0FC01E25EFF4FA491B0E0805E83
:100220009F4FFC0184918FB7F894EC91E22BEC93F3
:100230008FBF81E00DDF52DF80E00ADF4FDFF9CFB3
:04024000F894FFCF60
:00000001FF
